:020000040800F2
:100000005007002005010008252500086D1A00088A
:10001000FD1F0008AD0F00087D370008000000003C
:10002000000000000000000000000000812D00081A
:10003000CF0F000800000000C92700086D2E00083F
:100040001F0100081F0100081F0100081F01000810
:100050001F0100081F0100081F0100081F01000800
:100060001F0100081F0100081F0100081F010008F0
:100070001F0100081F0100081F0100081F010008E0
:100080001F0100081F0100081F0100081F010008D0
:100090001F0100081F0100081F0100081F010008C0
:1000A0001F0100081F0100081F0100081F010008B0
:1000B0001F010008093000081F0100081F01000887
:1000C0001F0100081F0100081F0100081F01000890
:1000D0001F0100081F0100081F0100080535000866
:1000E0001F0100081F0100081F010008DFF810D0E1
:1000F00000F0DEFB004800476F3F0008AFF30080D0
:10010000500700200648804706480047FEE7FEE704
:10011000FEE7FEE7FEE7FEE7FEE7FEE7FEE7FEE7B7
:100120007D2E0008ED00000840EA01039B0703D084
:1001300009E008C9121F08C0042AFAD203E011F826
:10014000013B00F8013B521EF9D27047D2B201E0E8
:1001500000F8012B491EFBD270470022F6E710B5CC
:1001600013460A4604461946FFF7F0FF204610BD25
:10017000F0B480EA0102D40F4200B2EB410F02D288
:100180000246084611464A0042D0C30DDDB2C1F313
:10019000C752AD1A202D35DAC1F3160141F4000221
:1001A00004B15242C5F1200602FA06F12A41104478
:1001B000B3EBD05F23D0C4B1012DA0EBC35009DC59
:1001C000F0BC4FF0004202EAC352DBB200F500007F
:1001D00000F044BA400000F1807000EBC350A0F181
:1001E000807040EAD170490009E0490841EAC071D5
:1001F000A0EBC35000F50000400800EBC350F0BC7A
:1002000000F023BA6142012202EB4101001BF6E734
:10021000F0BC704781F00041AAE780F00040A7E7FA
:1002200080EA010210B502F00043400022D04A00EB
:100230001FD0010E01EB1261C0F35600C2F356024B
:1002400040F4000042F40002A0FB022000047F39C9
:10025000140400D0401C50EA124001D44000491E52
:10026000C2B20C0604EBD010401C4008802A02D019
:1002700003E0002010BD20F00100002900DA00207A
:10028000184310BD30B480EA010202F0004530F09E
:10029000004221F0004013D090B1C30DD40DC2F341
:1002A0001601C0F31600E41A41F4000140F4000204
:1002B0007D34914201D3641C00E04900002C02DA35
:1002C00030BC002070474FF400000023914201D35E
:1002D000891A034340084FEA4101F7D151B19142D5
:1002E00002D14FF0004105E002D24FF0010101E0E0
:1002F0006FF0010103EBC450284430BC00F0A5B9F5
:100300002DE9FE4F804681EA0300C00F0C460090A5
:1003100021F0004123F00045B8EB0200A94105D2CD
:100320004046214690461C460B46024623F00040BC
:10033000104347D0270DC7F30A00C3F30A510290B8
:10034000401A019040286BDAC3F3130040F4801B7D
:100350000098924620B10023D2EB030A63EB0B0B0B
:1003600001985946C0F14002504600F04DF906464A
:100370000D4650465946019A00F055F910EB080019
:100380006141002487EA115284EAE7731A4340D09E
:10039000009A62B3019A012A4FEA075215DC001B4A
:1003A00061EB02014FF0004202EA0752CDE9004240
:1003B000001C41F5801132462B4600F08CF903B049
:1003C000BDE8F08F40462146F9E7001B61EB0201D2
:1003D000001C41F5801300185B412018A2F500179E
:1003E00047EB030140EAD570B6196D4111E06D0885
:1003F0004FEA360645EAC0754FEA0752001B61EB2B
:100400000201001C41F5801149084FEA3000001933
:10041000514132462B4603B0BDE8F04F00F04CB9D5
:100420000098012240000023D0EB020263EBE0734E
:10043000009821464FEAE074B8EB000061EB04013C
:10044000E9E783F000435BE781F0004158E72DE9DD
:10045000FE4F81EA030404F0004421F000410094BF
:100460004FF0000B23F0004350EA01045ED052EA43
:1004700003045BD0C3F30A54C1F30A552C44A4F21D
:10048000F3340194A0FB0254C1F3130141F4801131
:10049000C3F3130343F4801301FB024400FB034E38
:1004A000840A970A44EA815447EA8357A4FB076801
:1004B00002958D0A05FB07854FEA932C04FB0C542B
:1004C0002705029D4FEA065847EA1637B5EB08059F
:1004D0006EEB070C870E920E47EA811742EA8312F1
:1004E000A7FB0201B6EB0B0164EB00042B0D43EA02
:1004F0000C335E1844EB1C50DA465146E7FB020110
:10050000C5F313044FEA0B3343EA14534FEA0432A2
:10051000019C43EA0603A4F10C040294009CCDE97B
:1005200000B400F0D8F803B0BDE8F08F0020014619
:10053000F9E7C10F80EAE0700844CA07962300215A
:1005400000F08CB896230022114600F087B800F026
:10055000004220F00040C10DC0F3160040F400003E
:100560007F2901DA00207047962903DCC1F196014A
:10057000C84001E096398840002AF4D040427047D4
:1005800000F0004230F000400AD0C10D01F560716A
:10059000C0F3160042EA0151C208400711437047F8
:1005A00000200146704701F0004330B421F00041C3
:1005B00050EA010206D00A0DA2F56072C1F31301E0
:1005C000002A02DC30BC00207047440F44EAC1041A
:1005D000C100E01830BC00EBC25000F036B800009B
:1005E000002801DBC0F10040002901DBC1F100411E
:1005F00081427047002801DBC0F10040002901DB87
:10060000C1F1004188427047202A04DB203A00FAF9
:1006100002F1002070479140C2F1200320FA03F359
:10062000194390407047202A06DBCB17203A41FA45
:1006300002F043EAE07306E041FA02F3D040C2F16F
:10064000200291400843194670470029A8BF70470F
:10065000401C490008BF20F00100704710B4B0FAF8
:1006600080FC00FA0CF050EA010404BF10BC704793
:1006700049B1CCF1200421FA04F411FA0CF118BFAD
:10068000012121430843A3EB0C01CB1D4FEA00617C
:100690004FEA102042BF002010BC704700EBC3504F
:1006A00010440029A4BF10BC7047401C490008BF7B
:1006B00020F0010010BC704710B5141E73F1000447
:1006C00008DA401C41F1000192185B411A4301D144
:1006D00020F0010010BD2DE9F04D92469B4611B16E
:1006E000B1FA81F202E0B0FA80F220329046FFF7D0
:1006F0008BFF04460F4640EA0A0041EA0B015346CD
:100700005A46084313D0114653EA010019D0C8F1E4
:100710004002504600F0DEF805460E465046594667
:100720004246FFF771FF084305D0012004E0204650
:100730003946BDE8F08D0020054346EAE0762C43BB
:1007400037430A986305E40AA0EB08000022FD0A7B
:1007500044EA47540A3002D500200146E9E7010582
:1007600010196941DDE9084500196941BDE8F04DFE
:10077000A2E72DE9F04D81EA030404F0004B21F0DB
:10078000004514464FF0000A23F0004150EA0502EC
:1007900020D054EA01021DD0C5F30A570246C5F322
:1007A0001303C1F31300C1F30A5640F4801543F458
:1007B0008013A7EB0608101BD64608F2FD3873EB32
:1007C000050002D308F1010801E092185B41B8F17D
:1007D000000F03DA00200146BDE8F08D00204FF441
:1007E0008011064684460EE0171B73EB050705D300
:1007F000121B63EB050306434CEA010C49084FEA60
:10080000300092185B4150EA0107EDD152EA030033
:1008100012D082EA040083EA0501084305D0101BC8
:10082000AB4106D20122002306E000224FF0004334
:1008300002E06FF0010253101AEB06004CEB085176
:1008400010EB0A0041EB0B01BDE8F04DFFF734BFA0
:1008500070B521F0004303430CD0C1F30A550024C6
:10086000D5EB040564EB0403D617AD1AB34102DBE4
:100870000020014670BD201841EB025170BD000000
:1008800030B5041E71F1000404DB4FF00044404217
:1008900064EB0101141E73F1000405DB1C464FF0EC
:1008A0000043524263EB04038B4208BF824230BDD7
:1008B000064C074D06E0E06840F0010394E80700AD
:1008C00098471034AC42F6D3FFF714FC00430008FD
:1008D00020430008202A04DB203A21FA02F00021FC
:1008E000704721FA02F3D040C2F120029140084340
:1008F000194670472DE9F04D00231A461B1A8A410C
:1009000003DB00200146BDE8F08DC1F30A52C1F3BC
:10091000130141F480154FF0000BD10702D10018EC
:100920006D41521E0027044640F2FF11384601EB8C
:10093000620A3E468046024600204FF48011FFF7CF
:10094000C9FFC2197141BB1846EB0100B4EB030C9F
:1009500075EB000C04D3E41A65EB000517460E4650
:10096000241908F101006D4180463428E3DDF919AE
:1009700046EB0600091BA84103D24FF0FF32134695
:1009800001E0002213461BEB070046EB0A51BDE8CD
:10099000F04DFFF791BE000070B503F099FA1C48C6
:1009A00000684FF47A72B0FBF2F1B1F1807F00D3AE
:1009B0001DE021F07F40401E4FF0E02250615017B3
:1009C0000F22002807DA13071D0E124B00F00F0448
:1009D000241F1D5503E013071C0E0F4B1C5400BFB2
:1009E00000204FF0E02290610720106100BF01F06D
:1009F0005BF903F013FB01F001FA01F055FD02F081
:100A00002DFD01F093FE02F069FA02F0CBFA70BD01
:100A10000000002018ED00E000E400E010B50446FE
:100A200094F9020011281FD008DC012839D00228CF
:100A300038D0032853D0102852D108E0122820D0F3
:100A400013282BD014282AD0152849D128E026486D
:100A5000007820F00100401C234908701222211D5B
:100A60002248FFF761FB3CE01222211D2048FFF7DE
:100A70005BFB1D48007820F00200801C1A490870BA
:100A80002FE01222211D1B48FFF74EFB164800786D
:100A900020F00400001D1449087022E021E020E04D
:100AA0001FE01EE02079212813D004DC012807D0A4
:100AB000022811D10CE0A0280CD0A1280CD10AE00A
:100AC0000948007820F0400040300749087004E0F1
:100AD00003E002E001E000E000BF00BF01E000E051
:100AE00000BF00BF10BD000090000020D002002019
:100AF000E2020020F40200202DE9F04F87B0074603
:100B0000022601AC4FF000084FF000094FF0000A38
:100B1000162F7CD2DFE807F0CEA49493CECD91A31C
:100B2000CECECECECECECECE0B12191E1F20DFF8EB
:100B3000F081DFF8F091DFF8F0A10EE0DFF8EC8152
:100B4000DFF8EC91DFF8ECA107E0DFF8EC81DFF8EB
:100B5000EC9102E000BF00BF00BFB8F1000F20D051
:100B6000D8F810007649FFF75BFB8346FFF7EFFCF0
:100B700000B2ADF80800D8F814007149FFF750FB37
:100B80008346FFF7E4FC00B2ADF80A00D8F818007D
:100B90006B49FFF745FB8346FFF7D9FC00B2ADF880
:100BA0000C00B9F1000F20D0D9F810006449FFF70C
:100BB00037FB8346FFF7CBFC00B2ADF80E00D9F847
:100BC00014005F49FFF72CFB8346FFF7C0FC00B21F
:100BD000ADF81000D9F818005949FFF721FB8346FA
:100BE000FFF7B5FC00B2ADF81200BAF1000F22D049
:100BF000DAF810005249FFF713FB8346FFF7A7FC12
:100C000000B2ADF81400DAF814004D4900E051E0EC
:100C1000FFF706FB8346FFF79AFC00B2ADF816001B
:100C2000DAF818004649FFF7FBFA8346FFF78FFC16
:100C300000B2ADF8180012263DE008263BE03AE08D
:100C400040480168029141680391806804903E48E1
:100C5000016805918088ADF8180012262BE02AE083
:100C60003A48006880F0004039490090FFF7D8FA10
:100C70008346FFF76CFC00B2ADF8080033494868C2
:100C80003349FFF7CDFA8346FFF761FC00B2ADF8B8
:100C90000A002E48806880F000402D490090FFF740
:100CA000BFFA8346FFF753FC00B2ADF80C000626EE
:100CB00001E000E000BF00BF4AF6AA20ADF8040042
:100CC00046EA072000B2ADF806005421301D215439
:100CD00002251AE06057691C615648406055681C3F
:100CE000205661574840691C60546057615648401F
:100CF0006055615D681C205C0144301D205C084427
:100D000041B2301D2154A81CC5B2301D8542E1DB23
:100D1000701DC1B2204602F077FC07B0BDE8F08F2D
:100D2000180100204C01002080010020E801002073
:100D3000B40100201C020020500200208402002088
:100D400000007A44F00000201C000020FC0000207D
:100D50000000C8422DE9F8438648007820B10128F8
:100D600006D0022872D116E0012082490870FEE008
:100D70000220FFF7C1FE012003F0BCF80120FFF7BD
:100D8000BBFE012003F0B6F87B48007810B10220CA
:100D900078490870EBE07848007810B9012075496F
:100DA000087075480078C0F38010B8B11020FFF7C4
:100DB000A3FE012003F09EF81120FFF79DFE012005
:100DC00003F098F81220FFF797FE012003F092F845
:100DD0006948007820F0400067490870664800784C
:100DE00000F03F0000287DD0002500260027624843
:100DF000007800F0010050B1604D614E614F624CCF
:100E00005D48007820F001005B49087020E05A48F6
:100E10000078C0F3400050B15C4D5D4E5D4F5E4CBC
:100E20005548007820F002005349087010E05248FD
:100E30000078C0F3800050B1584D594E594C4E487F
:100E4000007820F004004C49087001E08EE08EE04C
:100E500065B320788DF8010060788DF80000BDF84A
:100E60000000FFF76FFB80464F49FFF70BFA286140
:100E7000A0788DF80100E0788DF80000BDF8000042
:100E8000FFF760FB80464849FFF7FCF9686120796D
:100E90008DF8010060798DF80000BDF80000FFF7C3
:100EA00051FB80464049FFF7EDF9A86176B3A07980
:100EB0008DF80100E0798DF80000BDF80000FFF723
:100EC00041FB80463849FFF7DDF93061207A8DF823
:100ED0000100607A8DF80000BDF80000FFF732FBDA
:100EE000804600E041E03049FFF7CCF97061A07A1C
:100EF0008DF80100E07A8DF80000BDF80000FFF7E2
:100F000021FB80462849FFF7BDF9B06167B3207B1C
:100F10008DF80100607B8DF80000BDF80000FFF740
:100F200011FB80462049FFF7ADF93861A07B8DF8B1
:100F30000100E07B8DF80000BDF80000FFF702FB28
:100F400080461949FFF79EF97861207C8DF80100F1
:100F5000607C8DF80000BDF80000FFF7F3FA8046D2
:100F60001149FFF78FF9B86100BF00E000BF00BF73
:100F7000BDE8F883920000209000002018010020B6
:100F80004C01002080010020D0020020E801002058
:100F9000B40100201C020020E202002050020020C8
:100FA00084020020F402002000007A4400BFFEE723
:100FB00070B506460C4615462946204602F0F9FF54
:100FC000A06A30602946304602F0F3FF70BD7047DA
:100FD00070B5044642480078012806D00B280BD093
:100FE0001F2817D0FF286FD165E03E48007810B168
:100FF0000B203B4908706BE008213B4802F0C3FF1F
:1010000000203A4948620860394988601F20344905
:1010100008705DE03749B1F90600FFF78AFA054626
:10102000354801682846FFF7FBF8344948623149E2
:10103000B1F90800FFF77DFA05462F4801682846F8
:10104000FFF7EEF82E4948622A49B1F90A00FFF786
:1010500070FA0546284801682846FFF7E1F8294953
:101060004862234840682849486221480068274967
:1010700048621F4880681D4948622146234802F0A3
:1010800098FF2248806A1D49086021461B4802F0EB
:1010900090FF21461C4802F08CFF1B48806A1849CB
:1010A00008602146164802F084FF22460F49154881
:1010B000FFF77EFF0CE008210B4802F064FF0120DF
:1010C0000749087004E0FFE7FF200549087000BFEA
:1010D00000BF0448007810B9FF200149087070BDB6
:1010E000CC00002022000020A40000201C020020D0
:1010F000FC000020F000002004420008180100203D
:101100004C01002080010020B4010020E8010020F3
:101110002DE9F0410246002500260020002300248E
:10112000002791F803C00CF00F0591F803C00CF0F4
:10113000100CBCF1000F03D091F802C04CEA050579
:1011400091F800C0BCF1000F31D0146800202BE0F2
:101150004FF0010C0CFA00F3B1F800C00CEA0306E2
:101160009E4220D183004FF00F0C0CFA03F7BC43D2
:1011700005FA03FC4CEA040491F803C0BCF1280F03
:1011800006D14FF0010C0CFA00FCC2F814C00AE0C2
:1011900091F803C0BCF1480F05D14FF0010C0CFAD7
:1011A00000FCC2F810C0401C0828D1D31460B1F86C
:1011B00000C0BCF1FF0F34DD546800202EE000F1C8
:1011C000080C4FF0010808FA0CF3B1F800C00CEA63
:1011D00003069E4221D183004FF00F0C0CFA03F757
:1011E000BC4305FA03FC4CEA040491F803C0BCF1CB
:1011F000280F05D100F1080C08FA0CF8C2F8148089
:1012000091F803C0BCF1480F07D100F1080C4FF072
:10121000010808FA0CF8C2F81080401C0828CED348
:101220005460BDE8F0810000F0B50A4600230024B8
:101230000021002500F00046B6F1004F02D11D4EFE
:10124000F16901E01B4E7168C0F3034583B200F4FD
:101250004016B6F5401F08D121F07061154E766832
:1012600026F07066134F7E6012E000F48016B6F52B
:10127000801F06D1032606FA05F4A14341F07061F0
:1012800006E0460D360103FA06F6B14341F07061FF
:1012900022B1460D360103FA06F6314300F000464E
:1012A000B6F1004F02D1034EF16101E0014E7160D1
:1012B000F0BD00000000014002460020D3680B4052
:1012C0000BB1012000E000207047416170470161CF
:1012D00070470AB1016100E04161704707B5A4B0F1
:1012E0004FF07C512698FEF79BFF1190FE488068D6
:1012F0000D90FD4800680C900D99FEF791FF0F903E
:10130000F948C0680D90F84840680C900D99FEF7B8
:1013100087FF0E900F99FEF77DFF4FF080411090F0
:10132000FEF77EFF2090F048C0680D90EE48806880
:101330000C900D99FEF774FF0F90EB4840680D90EC
:10134000E94800680C900D99FEF76AFF0E900F991E
:10135000FEF70EFF4FF080411090FEF761FF2190E5
:10136000E14880680C90E04880680B900C99FEF78B
:1013700057FF0E90DC4840680C90DB4840680B90AB
:101380000C99FEF74DFF0D900E99FEF7F1FE4FF010
:1013900080410F90FEF744FF4FF07E511090FEF712
:1013A0003CFF2290D148B0F904000B90FFF7C1F840
:1013B0000D90CE48B0F904000B90FFF7BAF80C90EE
:1013C0000D99FEF72DFF0F90C848B0F90200099063
:1013D000FFF7AFF80B90C548B0F902000990FFF78E
:1013E000A8F80A900B99FEF71BFF0D90BF48B0F9C3
:1013F00000000990FFF79DF80B90BC48B0F9000081
:101400000990FFF796F80A900B99FEF709FF0C90E8
:101410000D99FEF7ADFE0E900F99FEF7A9FE109004
:1014200001F0D4F9B24908602498B0F900000F9097
:10143000FFF77FF81090AE4801681098FEF7F0FEB5
:101440001D902498B0F902000F90FFF772F81090E9
:10145000A74801681098FEF7E3FE1E902498B0F9A3
:1014600004000F90FFF765F81090A14801681098EC
:10147000FEF7D6FE1F9021980E901F980D900E99A2
:10148000FEF7CEFE109022980E901E980D900E99A9
:10149000FEF7C6FE0F901099FEF7BCFE179022983B
:1014A0000E901D980D900E99FEF7BAFE10902098A0
:1014B0000E901F980D900E99FEF7B2FE0F901099A6
:1014C000FEF7A8FE189020980E901E980D900E9989
:1014D000FEF7A6FE109021980E901D980D900E9983
:1014E000FEF79EFE0F901099FEF794FE1990179844
:1014F0000F90804801680F98FEF792FE10907E488A
:10150000006801460F901098FEF732FE7A49086095
:1015100018980F90774801680F98FEF781FE109099
:101520007548406801460F901098FEF721FE7249F9
:10153000486019980F906F4801680F98FEF770FE89
:1015400010906D48806801460F901098FEF710FECD
:1015500069498860179801460D9068480068FEF751
:101560005FFE0F902498B0F906000C90FEF7E1FFA3
:101570000D90634801680D98FEF752FE0E900F998A
:10158000FEF7F6FD10905C48006801460F90109839
:10159000FEF7EEFD1A90189801460D905748006826
:1015A000FEF73EFE0F902498B0F908000C90FEF76D
:1015B000C0FF0D90524801680D98FEF731FE0E9065
:1015C0000F99FEF7D5FD10904B48406801460F90EB
:1015D0001098FEF7CDFD1B90199801460D904748D5
:1015E0000068FEF71DFE0F902498B0F90A000C90D9
:1015F000FEF79FFF0D90424801680D98FEF710FE20
:101600000E900F99FEF7B4FD10903B48806801469C
:101610000F901098FEF7ACFD1C901C980D9032486E
:10162000C0680C900D99FEF7FBFD0F901B980B9076
:101630002D4880680A900B99FEF7F2FD0D902A481C
:10164000406880F000400B901A9801460A900B9871
:10165000FEF7E6FD0C900D99FEF7DCFD0E900F995C
:10166000FEF7D8FD10901199FEF7DAFD16901C9840
:101670000D901D4880680C900D99FEF7D1FD0F90DC
:101680001B980B901848C0680A900B99FEF7C8FD8C
:101690000D901A980B90144800680A900B99FEF769
:1016A000BFFD0C900D99FEF7B5FD0E900F99FEF75A
:1016B0005FFD10901199FEF7B3FD15901C980D90E9
:1016C000094840680C900D99FEF7AAFD0F901B98F1
:1016D0000B90054800680A900B99FEF7A1FD0D904C
:1016E0001A980B9000480DE0DC000020F00000206C
:1016F000D0000020D800002040030020D4000020AB
:1017000008420008C0680A900B99FEF789FD0C900A
:101710000D99FEF72DFD0E900F99FEF77BFD1090B1
:101720001199FEF77DFD14901C980D90B948006842
:101730000C900D99FEF774FD0F901B980B90B54817
:1017400040680A900B99FEF76BFD0D90B1488068D8
:1017500080F000400B901A9801460A900B98FEF713
:101760005FFD0C900D99FEF703FD0E900F99FEF7AB
:10177000FFFC10901199FEF753FD1390A5480068E7
:1017800010901699FEF7F4FCA249086008464068DC
:1017900010901599FEF7ECFC9E4948600846806859
:1017A00010901499FEF7E4FC9A4988600846C068D6
:1017B00010901399FEF7DCFC9649C8600846C06893
:1017C0000D900846C0680C900D99FEF729FD0F900A
:1017D000904880680B908F4880680A900B99FEF7BC
:1017E0001FFD0D908B48406809908A48406808901A
:1017F0000999FEF715FD0B90864800680990854809
:10180000006808900999FEF70BFD0A900B99FEF706
:10181000AFFC0C900D99FEF7ABFC0E900F99FEF704
:10182000A7FC109000F0D2FF12907A480068109048
:101830001299FEF7F5FC7749086008464068109059
:101840001299FEF7EDFC73494860084680681090D5
:101850001299FEF7E5FC6F4988600846C068109051
:101860001299FEF7DDFC6B49C8602498B0F90A00B4
:101870000E90FEF75EFE0F90674801680F98FEF726
:10188000CFFC109065491098FEF7B4FE04D364496C
:101890001098FEF7A5FE0DD226991098FEF7C0FC11
:1018A0000F902598806801460E900F98FEF760FC17
:1018B000259988605B480068FEF762FECDE90C015F
:1018C00054484068014603904FF08040FEF7A8FC62
:1018D00004905048C068014603900498FEF7A0FCAD
:1018E00006904C480068014603904FF08040FEF798
:1018F00097FC049047488068014603900498FEF7DF
:101900008FFC05900699FEF785FC0790FEF738FEE0
:10191000CDE9080101F0C6FFCDE90A01DDE90C239C
:10192000FEF795FDCDE90E01FEF73DFE25994860D5
:101930003C480068FEF724FECDE90C01354880687C
:10194000014601904FF08040FEF76AFC029031485A
:101950008068014601900298FEF762FC04902D48D1
:101960004068014600904FF08040FEF759FC01901E
:1019700028484068014600900198FEF751FC4FF05E
:101980007E510290FEF749FC03900499FEF742FC59
:101990000590FEF7F5FDCDE908011E4800680146F7
:1019A00001904FF08040FEF73BFC029019484068E0
:1019B000014601900298FEF733FC049015488068B8
:1019C000014601904FF08040FEF72AFC029011483A
:1019D000C068014601900298FEF722FC039004992A
:1019E000FEF7C6FB0590FEF7CBFDCDE90601DDE96C
:1019F000082302F09FF9CDE90A01DDE90C23FEF787
:101A000026FDCDE90E01FEF7CEFD2599086027B031
:101A100000BD0000DC00002004420008000040403F
:101A2000000040C0FC41000800BF0E4801684FF0B4
:101A3000E02082690B4800688142F6D10A480068BC
:101A400000EB4003C3EBC010C2EBC000064B1B68A9
:101A5000B0FBF3F001EB4103C3EBC11300EBC30098
:101A600070470000180000201400002000BFFEE7AF
:101A700000B540200D49086000F008F980200B49AE
:101A8000086000F003F940200849091F086000F0D1
:101A9000FDF800F0FBF800F0F9F800F0F7F840204E
:101AA0000249086000F0F2F800BD0000140C01408B
:101AB00000B540200D49086000F0E8F880200B498F
:101AC000091F086000F0E2F840200849091F08607B
:101AD00000F0DCF800F0DAF800F0D8F800F0D6F802
:101AE00040200249086000F0D1F800BD140C01400C
:101AF00000B5082200218020144B18601AE0480627
:101B0000010E4020114B1B1D186000F0BFF800F0C3
:101B1000BDF840200D4B186000F0B8F800F0B6F8A2
:101B200000F0B4F809480838006800F0800008B1F7
:101B300041F00101101EA2F10103DAB2DFD1402011
:101B4000024B1B1D1860084600BD0000100C014030
:101B500000B5014608221DE04020134B186000F03C
:101B600095F801F0800020B180200F4B1B1F1860FA
:101B700002E080200C4B18604806010E00F086F849
:101B80004020094B1B1F186000F080F800F07EF821
:101B900000F07CF8101EA2F10103DAB2DCD1402083
:101BA000014B186000BD0000140C014000B58020FE
:101BB000134908604020086000F068F810480838B1
:101BC000006808B9012000E0002000F0800008B1A2
:101BD000012000BD80200A49091D086000F056F868
:101BE00007480838006800F0800008B10120F0E7DD
:101BF00040200349091D086000F048F80020E8E78C
:101C0000100C014000B540200B49086000F03EF880
:101C100080200949086000F039F800F037F84020CA
:101C20000549091F086000F031F880200249091FAA
:101C3000086000F02BF800BD140C014000B54020F6
:101C40001149086000F022F880200F49091F086040
:101C500000F01CF840200C49091F086000F016F83D
:101C600000F014F800F012F807480C38006800F093
:101C7000800020B1402004490860012000BD4020C0
:101C8000014908600020F9E7140C014008B5012063
:101C9000009004E09DF80000401EC0B200909DF846
:101CA00000000028F6D108BD08B50121082000F089
:101CB000C5FDC020ADF8000003208DF802001420FF
:101CC0008DF8030069460248FFF722FA08BD0000BC
:101CD000000C014070B504460D460026FFF766FF74
:101CE000012800D170BD2046FFF732FFFFF7A6FFA5
:101CF000012803D1FFF786FF0120F3E72846FFF70D
:101D000027FFFFF79BFFFFF77DFFFFF74FFF611CEA
:101D1000C8B2FFF71DFFFFF791FF012803D1FFF7BE
:101D200071FF0120DEE7FFF7E3FE0646FFF7C0FE86
:101D3000FFF768FF70B2D5E770B506460C4615464A
:101D4000FFF734FF012800D170BD3046FFF700FFD8
:101D5000FFF774FF012803D1FFF754FF0120F3E7D9
:101D60002046FFF7F5FEFFF769FF2846FFF7F0FE74
:101D7000FFF764FFFFF746FF0020E5E72DE9F0419C
:101D800006460F4615461C46FFF710FF012801D1F5
:101D9000BDE8F0813046FFF7DBFEFFF74FFF01287B
:101DA00003D1FFF72FFF0120F2E73846FFF7D0FEFF
:101DB000FFF744FFFFF726FFFFF7F8FE711CC8B2DC
:101DC000FFF7C6FEFFF73AFF012803D1FFF71AFF1E
:101DD0000120DDE70CE0FFF78BFE2870012C02D11B
:101DE000FFF766FE01E0FFF743FE6D1C601EC4B204
:101DF000002CF0D1FFF706FF0020C9E708B501214C
:101E0000082000F01BFD0121084600F017FD01210C
:101E10000A48FFF709FA01210948FFF705FA40F2DD
:101E20000630ADF8000010208DF8030003208DF877
:101E3000020069460348FFF76BF908BD0004300053
:101E400000023000000C014010B568480068684985
:101E50000968401A67490988884200D210BD634862
:101E600000686349086063488078062875D2DFE817
:101E700000F04B03165E758F4FF400715E48FFF75C
:101E800026FA02215C48FFF722FA4FF400715A4803
:101E9000FFF71DFA04215848FFF719FAA2E00221C2
:101EA0005548FFF709FAC0F10100C4B222460221E9
:101EB0005148FFF70EFA4FF400714F48FFF7FCF955
:101EC000C0F10100C4B222464FF400714A48FFF746
:101ED00000FA04214848FFF7EFF9C0F10100C4B24D
:101EE000224604214448FFF7F4F94FF48071424838
:101EF000FFF7E2F9C0F10100C4B222464FF480714D
:101F00003D48FFF7E6F96DE04FF400713A48FFF7FE
:101F1000DCF902213848FFF7D8F94FF480713648D0
:101F2000FFF7D3F904213448FFF7CFF95AE04FF413
:101F300000713148FFF7CBF902212F48FFF7C5F9AF
:101F40004FF480712C48FFF7C2F904212A48FFF7AB
:101F5000BCF902202749887044E03FE0022126486E
:101F6000FFF7B3F904212448FFF7AFF94FF40071EC
:101F70002148FFF7A1F9C0F10100C4B222464FF495
:101F800000711D48FFF7A5F964201A49088029E06F
:101F90004FF400711848FFF798F94FF48071164814
:101FA000FFF793F902211448FFF786F9C0F1010009
:101FB000C4B2224602211048FFF78BF904210E48D3
:101FC000FFF77AF9C0F10100C4B2224604210A48A1
:101FD000FFF77FF946200749088003E00120054903
:101FE000887000BF00BF00BF38E700001800002065
:101FF000400000203C000020000C014000BFFEE734
:102000002DE9F0479848007810B9FF2097490870EB
:1020100096480078012806D0022811D01F2819D030
:10202000FF287DD1BBE000209149C880888048808E
:1020300008808D48007810B102208C49087000BFDC
:102040008C48808840F24C41884202DD1F2087493D
:102050000870AFE087498988A1F57A70FEF769FAC0
:1020600006468548816A3046FEF782F80546FEF747
:102070006EFA04B27F488088B0F57F7F06DA0020D0
:102080007B49C88088804880088093E0002C01DA72
:10209000002006E0B4F5617F02DD4FF4617000E0DE
:1020A00020467349C880888048800880734A916AB6
:1020B000734A906AFEF7AEF880467248816A4046DD
:1020C000FEF7A8F806466A49B1F90000FEF731FAB2
:1020D00007463146FEF74CF80546FEF738FA00B2DF
:1020E00063490880654A916A654A906AFEF740F83C
:1020F00080466448816A4046FEF73AF806465C49E5
:10210000B1F90200FEF715FA07463146FEF730F83E
:102110000546FEF71CFA00B255494880584800E0D1
:1021200047E0806A80F000485448816A4046FEF7E4
:102130001FF807465348816A3846FEF76BF8064693
:102140004B49B1F90400FEF7F4F981463146FEF738
:102150000FF80546FEF7FBF900B24549888048486C
:10216000806A80F000484548816A4046FEF752F890
:1021700007464448816A3846FDF7FAFF06463C495F
:10218000B1F90600FEF7D5F981463146FDF7F0FFBB
:102190000546FEF7DCF900B23549C8800AE00020A8
:1021A0003349C88088804880088001202F49087002
:1021B00000E000BF00BF2E48B0F90000002801DA9F
:1021C00000200BE02A48B0F90000B0F57A7F02DD6C
:1021D0004FF47A7002E02648B0F900004FF08041D9
:1021E00088862348B0F90200002801DA00200BE0BD
:1021F0001F48B0F90200B0F57A7F02DD4FF47A7023
:1022000002E01B48B0F902004FF0804108871848EF
:10221000B0F90400002801DA00200BE01448B0F9FE
:102220000400B0F57A7F02DD4FF47A7002E01048C6
:10223000B0F904004FF0804188870D48B0F90600DE
:10224000002801DA00200BE00948B0F90600B0F5DB
:102250007A7F02DD4FF47A7002E00548B0F906009B
:1022600009490880BDE8F08722000020CD00002049
:10227000C400002008010020500200204C01002072
:102280001801002080010020400000402DE9FE4F91
:1022900006236A463B21D020FFF770FD06230DF18F
:1022A00006024321D020FFF769FD002458E00120F9
:1022B00000EB44001DF800001DF8141040EA012056
:1022C000294931F81410401A00B22849096821F848
:1022D0001400032C1BDA2549096831F91400FEF7B4
:1022E00028F9054604EB4401214A02EBC1002946C6
:1022F00001F011FE04EB44011D4A02EBC1018868A4
:10230000FEF725F900B21949096821F81400022CDA
:1023100024DDE01EC5B2DFF85C801449096831F99C
:102320001400FEF706F982464146FDF779FF07469D
:10233000114951F825001149FDF772FF81463946D0
:10234000FDF716FF0C4941F825000646FEF7FFF899
:1023500000B20649096821F8140000BF601CC4B22D
:10236000062CA4DBBDE8FE8FB8020020440000204C
:10237000480000209A99193EC40200209A99593FBA
:10238000F0B58BB0182105A8FDF7E7FE1E25052640
:102390007742002003900490404800210160416092
:1023A00081604FF400503D498880002201213C4863
:1023B00000F09CFE3BE000BF0A2001F09BFDFFF710
:1023C00065FF002416E037480168E01C31F8100072
:1023D00003A931F81410401A00B201A921F8140021
:1023E00030480168E01C31F8100003A921F81400FE
:1023F000601C04B2032CE6DBBDF904000528DBDC1D
:10240000BDF9040010F1050FD6DBBDF90600052863
:10241000D2DCBDF9060010F1050FCDDBBDF90800D7
:102420000528C9DCBDF9080010F1050FC4DB281E22
:10243000A5F10101CDB2BED1002417E0FFF726FFC0
:10244000642C11DB00200CE005A951F82010154A7E
:10245000126832F91020114405AA42F82010411CDC
:10246000C8B20628F0DB00BF601C04B2B4F5B27F2E
:10247000E4DB002409E005A850F82400001200B2B3
:10248000064921F81400601C04B2062CF3DB01227B
:102490001146034800F02AFE0BB0F0BDB802002040
:1024A000000400404400002010B5002400BF80223A
:1024B0006B21D020FFF740FCC4B21E2001F01AFDB2
:1024C00002221921D020FFF737FC2044C4B2032296
:1024D0006B21D020FFF730FC2044C4B203221A2124
:1024E000D020FFF729FC2044C4B218221B21D020A1
:1024F000FFF722FC2044C4B209221C21D020FFF7A0
:102500001BFC2044C4B2002CD1D17521D020FFF790
:10251000E1FBC4B2682C01D0012010BDFFF730FFF1
:102520000020FAE7704700001FB510A103C9CDE9EC
:102530000201052202A9302000F0BEF805226946FA
:10254000102000F067F8002406E01DF80400A5281C
:1025500000D003E0601CC4B2052CF6DB00BF052CE4
:1025600002D0012004B010BD0020FBE7A5A5A5A561
:10257000A500000008B50121042000F05FF94FF428
:102580000060ADF8000010208DF8030003208DF8E6
:10259000020069461D48FEF7BBFD0121082000F03E
:1025A0004DF94FF48050ADF8000010208DF8030075
:1025B00003208DF8020069461548FEF7A9FD4FF487
:1025C0000060124910310860400011491031086064
:1025D0000011ADF8000048208DF8030003208DF8AD
:1025E000020069460948FEF793FD4FF480710748E1
:1025F000FEF76DFE00F032FB4FF40060034914312A
:102600000860400002491031086008BD0008014020
:10261000000C01402DE9F04107460D4616464FF4E7
:1026200080500C490860384600F08EFB804600243C
:1026300005E0FF2000F088FB2855601CC4B2B442BE
:10264000F7DB4FF480500349091F08604046BDE89E
:10265000F0810000140C014070B504464FF4805026
:1026600007490860204600F06FFBFF2000F06CFB7C
:1026700005464FF480500249091F0860284670BD86
:10268000140C014070B504460720FFF7E5FF05462E
:102690002946272000F032F805F0400050B12022F2
:1026A00021466120FFF7B6FFFF21E22000F026F867
:1026B000002070BD0120FCE72DE9F04107460C46E3
:1026C00015464FF480500C490860384600F03CFB3A
:1026D0008046002605E014F8010B00F035FB701C65
:1026E000C6B2AE42F7DB4FF480500349091F0860C1
:1026F0004046BDE8F0810000140C014070B505466D
:102700000C464FF4805008490860284600F01CFB36
:102710000646204600F018FB4FF480500249091F7E
:102720000860304670BD0000140C014010B5FFF782
:1027300021FF00BF00F05AFAFFF7F6FE0128F9D09A
:1027400010BD000070B5002100230F22C47804B32F
:10275000154C246804F4E064C4F5E064210AC1F176
:102760000403CA40447804FA03F1847814402143F6
:1027700009010E4C0678A155047804F01F050124C8
:10278000AC4005786D11AD0005F1E025C5F80041BC
:1027900009E0047804F01F050124AC40044D0678DC
:1027A000761145F8264070BD0CED00E000E400E035
:1027B00080E100E002490143024A116070470000D5
:1027C0000000FA050CED00E0704700002DE9F05F15
:1027D00004464FF07F594FF07C512046FDF720FD15
:1027E000824625462E460C48A0EB6606354629460D
:1027F0005046FDF715FD83462946FDF711FD80463D
:102800004946FDF70AFD07462946FDF709FD05463D
:102810002846BDE8F09F0000DF59375F29B1064A1E
:10282000D2690243044BDA6104E0034AD26982436D
:10283000014BDA61704700000010024029B1064ADE
:1028400092690243044B9A6104E0034A926982430D
:10285000014B9A61704700000010024030B5002122
:102860000022002400232D4D6D6805F00C0121B1DC
:10287000042905D0082923D105E0294D056022E06F
:10288000274D05601FE0254D6D6805F47012234D3E
:102890006D6805F48034022505EB92421CB9214D88
:1028A000554305600BE01D4D6D6805F400351DB105
:1028B0001C4D5543056002E0194D5543056002E08B
:1028C000174D056000BF00BF144D6D6805F0F001A5
:1028D0000909154D6B5C0568DD4045600F4D6D685D
:1028E00005F4E061090A104D6B5C4568DD408560C8
:1028F0000A4D6D6805F46051C90A0B4D6B5C456863
:10290000DD40C560054D6D6805F44041890B074DFC
:102910006B5CC568B5FBF3F5056130BD0010024086
:1029200000127A0000093D0023000020330000203F
:102930002DE9F041A54EA648FFF7A4FE00287CD162
:102940000025A4490880002405E0A148005D284432
:10295000C5B2601CC4B21F2CF7DB9D48C07FA842E3
:102960006CD19B480078AA28FAD199484078AF28C2
:10297000F6D1974840799649097940EA012096496D
:10298000088008460088B0F57A7F02DA4FF47A7042
:1029900009E091480088B0F5FA6F02DD4FF4FA6063
:1029A00001E08D4800888C4908808948C0798849B1
:1029B000897940EA01208849488008464088B0F576
:1029C0007A7F02DA4FF47A7009E083484088B0F5E4
:1029D000FA6F02DD4FF4FA6001E07F4840887E49DB
:1029E00048807B48407A7A49097A40EA01207A494E
:1029F000888008468088B0F57A7F02DA4FF47A70D2
:102A000009E075488088B0F5FA6F02DD4FF4FA608E
:102A100001E071488088704988806D48C07A6C49AF
:102A2000897A40EA01206C49C88008468088B0F560
:102A30007A7F04DA4FF47A700BE0B5E0B3E06648D1
:102A4000C088B0F5FA6F02DD4FF4FA6001E0624829
:102A5000C0886149C8805E48407B5D49097B40EA87
:102A600001205D49088108460089B0F57A7F02DAC5
:102A70004FF47A7009E058480089B0F5FA6F02DD2A
:102A80004FF4FA6001E054480089534908815048E6
:102A9000C07B4F49897B40EA01204F494881084665
:102AA0004089B0F57A7F02DA4FF47A7009E04A483B
:102AB0004089B0F5FA6F02DD4FF4FA6001E0464854
:102AC0004089454948814248407C4149097C40EA67
:102AD00001204149888108468089B0F57A7F02DA71
:102AE0004FF47A7009E03C488089B0F5FA6F02DD56
:102AF0004FF4FA6001E038488089374988813448CA
:102B0000C07C3349897C40EA01203349C8810846AA
:102B1000C089B0F57A7F02DA4FF47A7009E02E4866
:102B2000C089B0F5FA6F02DD4FF4FA6001E02A487F
:102B3000C0892949C881498840F2DC52501AFDF702
:102B4000F8FC07462149FDF76BFB24490860224940
:102B5000098840F2DC52501AFDF7EBFC07461B498E
:102B6000FDF75EFB1E4908601B48C08840F21C71DF
:102B7000884208DD1B4908684FF07D51FDF7F8FADF
:102B8000184908600DE01448C08840F29C41884212
:102B900007DA144908684FF07D51FDF73BFB1149F6
:102BA000086001F06DFA0FE00A480088401C0949EE
:102BB000088008460088B0F5487F05DD00200880C1
:102BC00009490870FFF7B2FDBDE8F0810AD7233D3F
:102BD0001F0300209C00002008010020B4010020F9
:102BE000E80100201C0200202200002010B54FF454
:102BF000006012490860052211492A20FFF75CFD98
:102C000001212120FFF77AFD01212220FFF776FD27
:102C10002D212520FFF772FD20213120FFF76EFDC9
:102C20000F212620FFF76AFD0F212020FFF766FD08
:102C30004FF400600149091F086010BD14080140ED
:102C4000F141000821B1028842F04002028004E014
:102C500002884FF6BF731A400280704700B587B0F4
:102C600001218803FFF7DAFD01210920FFF7E6FDC6
:102C70004FF480511C48FEF72AFB4FF46040ADF83A
:102C8000040003208DF8060018208DF8070001A924
:102C90001548FEF73DFA00211448FFF7D3FF002046
:102CA000ADF808004FF48270ADF80A000020ADF8CE
:102CB0000C00ADF80E00ADF810004FF40070ADF848
:102CC00012001020ADF814000020ADF81600072007
:102CD000ADF8180002A9054800F018F801210348D2
:102CE000FFF7B0FF07B000BD000C01400038004006
:102CF0000246002013890B400BB1012000E00020A8
:102D000070470146888970478181704710B500225D
:102D1000028802F441520B884C8823438C88234359
:102D2000CC8823430C8923434C8923438C89234338
:102D3000CC8923431A430280838B4FF2FF742340D4
:102D400083830B8A038210BD10B5044600BF0221A5
:102D50000A48FFF7CDFF0028F9D021460748FFF7C2
:102D6000D3FF00BF01210548FFF7C2FF0028F9D0BB
:102D70000248FFF7C6FFC0B210BD00000038004097
:102D8000704710B500F002F810BD00000CB500202F
:102D9000019000903348006840F480303149086069
:102DA00000BF3048006800F4003000900198401CDB
:102DB0000190009818B90198B0F5A06FF1D1294899
:102DC000006800F4003010B10120009001E0002004
:102DD00000900098012843D12348006840F010007B
:102DE000214908600846006820F003000860084692
:102DF000006840F0020008601A48406819494860BD
:102E00000846406848600846406840F48060486072
:102E10000846406820F47C1048600846406840F44A
:102E2000E81048600846006840F08070086000BF05
:102E30000C48006800F000700028F9D0094840688C
:102E400020F00300074948600846406840F002004F
:102E5000486000BF0348406800F00C000828F9D122
:102E60000CBD000000100240002002400248006833
:102E7000401C0149086070471800002010B5134835
:102E8000006840F001001149086008464068104998
:102E900008400E494860084600680E4908400B4942
:102EA00008600846006820F48020086008464068F2
:102EB00020F4FE0048604FF41F008860FFF761FFB8
:102EC0004FF000600449086010BD0000001002408F
:102ED0000000FFF8FFFFF6FE08ED00E000B589B046
:102EE00001210420FFF7AAFC0F20ADF80400032005
:102EF0008DF8060018208DF8070001A92848FEF774
:102F000007F901210846FFF789FC40F2E730ADF8E8
:102F10001C000820ADF818000020ADF81E00ADF828
:102F20001A0006A94FF0804000F046FA6020ADF884
:102F300008000120ADF80A000020ADF80E00ADF841
:102F4000100002A94FF0804000F0DAF80821C8060E
:102F500000F022F902A94FF0804000F027F9082183
:102F6000C80600F075F902A94FF0804000F07EF924
:102F70000821C80600F0CAF902A94FF0804000F00D
:102F8000CFF90821C80600F009FA0121880700F0EE
:102F900081F80121880700F08CF809B000BD00001D
:102FA000000801401FB501210220FFF737FC1D205A
:102FB0008DF8000001208DF8010003208DF802003B
:102FC00001208DF803006846FFF7BCFB40F22B1090
:102FD000ADF8080040F2CF20ADF804000020ADF8B5
:102FE0000A00ADF8060001A9064800F0E5F9012243
:102FF0001146044800F07AF80121024800F059F81F
:103000001FBD00000004004010B50121194800F068
:103010005CF870B318480068401C174908601748EE
:103020000078401C1549087015480078401C144968
:1030300008701248007801280BD100200F49087051
:10304000FFF724F9FFF774FC0E48FDF7C1FFFEF708
:10305000D7FF0B480078022807D1002008490870E4
:10306000094A0A490A48FEF739F90121014800F0E6
:103070001DF810BD0004004018000020370000209B
:1030800038000020A69B443BB020CD3BFC00002034
:10309000F000002021B1028842F08002028004E0AA
:1030A00002884FF67F731A4002807047CA4302823B
:1030B000704721B1028842F00102028004E00288D8
:1030C0004FF6FE731A400280704730B5024600206A
:1030D00000230024158A05EA0103958905EA010405
:1030E00013B10CB1012000E0002030BD1AB183897A
:1030F0000B43838102E083898B4383817047000007
:1031000070B5002400220023058C4FF6FE76354072
:103110000584028C8388048B4FF68F752C40B51E76
:103120002C400D882C43751E2A400D892A434D885A
:103130002A43144DA8420BD0134DA84208D0134D7A
:10314000A84205D0124DA84202D0124DA84213D178
:103150004FF6F7752A404D892A434FF6FB752A40F2
:103160008D882A434FF6FF652B404FF6FF552B40C5
:103170008D892B43CD892B4383800483CD8885861D
:10318000028470BD002C0140003401400040014029
:1031900000440140004801400A460021018B4FF6DF
:1031A000F7731940114301837047000070B5002484
:1031B00000220023058C4FF6EF7635400584028C03
:1031C0008388048B48F6FF752C404FF6FF452C4052
:1031D0000D884FF6FF7606EA05252C434FF6DF757E
:1031E0002A400D8906EA05152A434D8806EA051589
:1031F0002A43154DA84202D0144DA8421DD14FF6C6
:103200007F752A404D894FF6FF7606EA05152A4359
:103210004FF6BF752A408D8806EA05152A434FF6FA
:10322000FF352B404FF2FF752B408D8906EA85054F
:103230002B43CD8906EA85052B4383800483CD8803
:103240000587028470BD0000002C0140003401405D
:103250000A460021018B4FF2FF7319404FF6FF73AE
:1032600003EA0223194301837047000070B500246C
:1032700000220023058C4FF6FF6635400584028C42
:103280008388848B4FF68F752C404FF6FC752C404D
:103290000D882C434FF6FF552A400D894FF6FF76D7
:1032A00006EA05252A434D8806EA05252A43154DD9
:1032B000A84202D0144DA8421DD14FF2FF752A40FA
:1032C0004D894FF6FF7606EA05252A434FF6FF356E
:1032D0002A408D8806EA05252A434EF6FF752B40C5
:1032E0004DF6FF752B408D8906EA05152B43CD89D8
:1032F00006EA05152B4383808483CD888587028465
:1033000070BD0000002C0140003401400A4600213D
:10331000818B4FF6F773194011438183704700008A
:1033200070B5002200230024058C4EF6FF76354050
:103330000584038C8488828B48F6FF752A404FF6FB
:10334000FF452A400D884FF6FF7606EA05252A43F9
:103350004DF6FF752B400D8906EA05352B434D8848
:1033600006EA05352B430B4DA84202D00A4DA84270
:1033700008D14BF6FF752C408D894FF6FF7606EA93
:1033800085152C4384808283CD88A0F84050038427
:1033900070BD0000002C0140003401400A460021AD
:1033A000818B4FF2FF7319404FF6FF7303EA02233C
:1033B0001943818370470000002202881D4B984208
:1033C0000ED01D4B98420BD0B0F1804F08D01B4B54
:1033D000984205D01A4B984202D01A4B984204D119
:1033E0004FF68F731A404B881A43174B984207D0F9
:1033F000164B984204D04FF6FF431A40CB881A432D
:1034000002808B8883850B8803850A4B98420BD0FA
:10341000094B984208D00E4B984205D00D4B98426C
:1034200002D00D4B984201D10B7A0386012383828F
:1034300070470000002C01400034014000040040AF
:1034400000080040000C0040001000400014004044
:1034500000400140004401400048014000B587B0F1
:1034600001212448FFF7DAF927208DF80400002015
:103470008DF805008DF8060001208DF8070001A8E1
:10348000FFF760F94FF48060ADF8180018208DF850
:103490001B0003208DF81A0006A91748FDF738FE17
:1034A0004FF40060ADF8180004208DF81B0006A949
:1034B0001148FDF72DFE114802900020ADF80C00D8
:1034C000ADF80E00ADF81000ADF814000C20ADF80A
:1034D000120002A90A4800F0E1F8012240F2255149
:1034E000074800F0B5F80121054800F0A5F807B03D
:1034F00000BD000008000400000C014020A10700EE
:103500000048004070B53C4800883B48008840F2C5
:103510002551084000286ED03748001D008840B271
:103520003649374A127888543548007810B1012856
:103530001AD10AE0314890F90000563020B93048DD
:103540000078401C2E49087054E02C4890F9010086
:10355000513028B92A480078401C2949087002E0F7
:1035600000202749087045E0244890F90300001D19
:1035700023490978884205DD21480078401C20490C
:10358000087037E00025002405E01C48005D284451
:1035900045B2601CC4B21A4800788442F5DB174873
:1035A000174909784056A8421CD11448807815491B
:1035B00008710846457100208871002409E011480F
:1035C00080791049095D084440B20E498871601C39
:1035D000C4B2062CF3DB07210A4800F015F80748AF
:1035E000FDF71CFA0020064908700449087048706D
:1035F00000BF00BF00BF70BD0048004006030020B0
:10360000930000209400002070B505460E4600246B
:103610000DE000BF0748008800F080000028F9D0C6
:10362000285781B2034800F0A5F8601CC4B2B44228
:10363000EFDB70BD0048004021B1828942F40052A6
:10364000828104E082894DF6FF731A4082817047BF
:10365000F0B50346002400260025002040F66A1736
:10366000B94200D100BF1846C1F3421401F01F0651
:10367000012707FA06F5012C01D10C3004E0022CD9
:1036800001D1103000E014301AB107682F430760F1
:1036900002E00768AF430760F0BD00002DE9F04786
:1036A00086B005460E460024A24600BFA14600276C
:1036B000B08900B100BF2F462C8A4CF6FF70044041
:1036C000F08804432C82AC894EF6F3100440B08895
:1036D00031890843718908430443AC81AC8A4FF6B1
:1036E000FF400440B0890443AC8201A8FFF7B6F85C
:1036F0001F48874202D1DDF810A001E0DDF80CA0E0
:10370000A88900F4004040B10AEBCA0000EB0A109F
:1037100031684900B0FBF1F807E00AEBCA0000EBA2
:103720000A1031688900B0FBF1F86420B8FBF0F0B2
:1037300004012009642101FB1089A88900F40040DC
:1037400040B1322000EBC900B0FBF1F000F00700FF
:10375000044308E0322000EB09106421B0FBF1F0D3
:1037600000F00F0004432C8106B0BDE8F087000094
:1037700000380140C1F308028280704700BFFEE7B5
:10378000490050EAC12018BF04204A0D18BF40F07C
:10379000010040F2FF72B2EB515F08BF40F002003F
:1037A000012808BF052070472DE9F0414F1E00EBAE
:1037B000C7010446D1E9000115461E4637F006024E
:1037C0000DD02A463346FCF742FE7F1E04EBC703AA
:1037D000D3E90023FCF794FD37F00602F1D1022F64
:1037E00025D0042F13D0062F18BFBDE8F0812A463C
:1037F0003346FCF72CFED4E90A23FCF781FD2A4668
:103800003346FCF724FED4E90823FCF779FD2A4669
:103810003346FCF71CFED4E90623FCF771FD2A466B
:103820003346FCF714FED4E90423FCF769FD2A466D
:103830003346FCF70CFED4E90223FCF761FD2A466F
:103840003346FCF704FED4E90023BDE8F041FCF761
:1038500057BD0122FCF7FCBFFCF752BD0022134606
:1038600010461146FCF785BF024A00201107FCF7FD
:10387000EFBF000001FDFFFF02E008C8121F08C1F2
:10388000002AFAD170477047002001E001C1121FE1
:10389000002AFBD170470000014908607047000012
:1038A000EC0000202DE9F04D8D4F21F0004A86B04C
:1038B00005460C46BA452ADBAAEB070028430AD086
:1038C0008848824501DC1AD1CDB106B02846BDE852
:1038D000F04DFFF7BEBF844A844B2846FCF7B7FD86
:1038E00007460E46824A834B28462146FCF7AFFD29
:1038F00006B03A463346BDE8F04DFCF701BD012065
:10390000FFF7CAFF06B0BDE8F04DFFF7A7BF7A4842
:10391000824542DABAF1795F0BDA2846FFF730FFC9
:10392000042808BFFFF7A0FF284606B02146BDE8DF
:10393000F08D2A460B461046FCF789FD8346024669
:103940006E480E460B4606217844FFF72DFF5A4677
:103950003346FCF77CFD804669488A465A46334622
:1039600004217844FFF720FF5A463346FCF76FFDE9
:1039700000223B46FCF7C4FC02460B46404651463B
:10398000FCF7F7FE2A462346FCF761FD06B02A46FF
:103990002346BDE8F04DFCF7B3BC284624F00041B7
:1039A00000223D463B46FCF74FFD4FF0FF32FCF74F
:1039B0004FFF0646024653480F460B460621784401
:1039C000FFF7F2FE32463B46FCF741FDCDE9000130
:1039D0004D4832463B4604217844FFF7E5FE324627
:1039E0003B46FCF734FD00222B46FCF789FC83465E
:1039F00002913046394600F0D3FB804643480D46DD
:103A0000504517DCDDE900015A46029BFCF7B1FE88
:103A100042462B46FCF71BFD42462B46FCF770FC4A
:103A20000122FCF715FF304A304BFCF70AFD304A03
:103A3000304B4CE04FF0000A52460B464046FCF734
:103A40005FFCCDE9031052462B4610461946FCF7A1
:103A5000FEFC32463B46FCF7F7FCDDE90332FCF79F
:103A600088FE06460F46DDE900015A46029BFCF738
:103A700080FE83460091012230463946FCF7E8FE7D
:103A8000194A1A4BFCF7E0FC06460F460122404655
:103A90002946FCF7DDFE5A46009BFCF7D8FC32466F
:103AA0003B46FCF7CEFC06460F460122504629460F
:103AB000FCF7CEFE0E4DDFF858802A464346FCF751
:103AC000C3FC32463B46FCF7BFFC2A464346FCF7A4
:103AD000BBFC002CD8BF81F0004106B0BDE8F08DE2
:103AE0000000F03F0000F07F075C143326A6913CF5
:103AF000182D4454FB21F93F0000E03FC4080000AA
:103B0000DA0800004E080000640800003333EF3F7D
:103B1000FB21E93F2DE9F84F04460D4621F0004016
:103B200000917349814211DC7249884201DC06D15F
:103B30002CB120462946BDE8F84FFFF78ABE6E48F3
:103B4000002DCCBF6D496E49BDE8F88F6D498142AB
:103B500011DD6D498142D8BF4FF0FF366DDD204643
:103B60002946FFF70DFE042808BFFFF77DFE20461B
:103B70002946BDE8F88F6549654F25F0004581422B
:103B800033DD6449814219DD002632464FF080431F
:103B900020462946FCF7B4FB80468A46012220468F
:103BA0002946FCF755FE00223B46FCF74AFC4246FC
:103BB0005346FCF7DEFD04460D463EE0012600229A
:103BC000BA463B4620462946FCF79AFB80460F46FC
:103BD0000022534620462946FCF733FC42463B462A
:103BE000FCF7C7FD04460D4627E04B4981421BDD2B
:103BF000DFF828A102260022534620462946FCF77A
:103C000026FC00223B46FCF77BFB80460F46002249
:103C1000534620462946FCF714FC42463B46FCF737
:103C2000A8FD04460D4608E0032622462B46002048
:103C30003B49FCF79EFD04460D4622462B461046A6
:103C40001946FCF704FC8B46824602460B46FCF7FD
:103C5000FEFB07460246334888460B460621784459
:103C6000FFF7A2FD52465B46FCF7F1FB82462E4869
:103C70008B463A46434605217844FFF795FD3A4680
:103C80004346FCF7E4FB02460B46002E50465946DD
:103C90000CDAFCF735FB22462B46FCF7D8FB01B0CB
:103CA00022462B46BDE8F04FFCF7CEBBFCF728FBC5
:103CB00022462B46FCF7CBFB1C4A7A4402EBC60398
:103CC000D3E90023FCF7BDFB22462B46FCF7B9FBEA
:103CD000174A7A4402EBC603D3E90023FCF7B4FB8E
:103CE000009A002AB8BF81F00041BDE8F88F0000BB
:103CF000000010440000F07F182D4454FB21F93FD0
:103D0000FB21F9BF0000DC3F0000203E0000F33F34
:103D10000000F03F0000E63F008003400000F83F55
:103D20000000F0BF6606000024060000C205000087
:103D30008A0500002DE9F04D9446CCF1000423F0F3
:103D400000464CEA0404594F46EAD4749A46884621
:103D500021F00042BC4206D8454240EA050442EA4E
:103D6000D474BC4204D9BDE8F04D6246FFF774BD7F
:103D7000AAF14055A5F17F6555EA0C040BD0022449
:103D800004EAAA744A4DDFF82CE144EAD87452EAF6
:103D9000000B04D00CE0BDE8F04DFFF7BBBE002CDB
:103DA00014BF012CBDE8F08D022C30D0032C32D092
:103DB00056EA0C0B0AD0BE4220D1BA4209D126F0F5
:103DC000804622F080423346114617E000291ADB74
:103DD00025E0DFF8E4B0FB44002C04BFDBE9000180
:103DE000BDE8F08D012C02BFDBE9000181F000414C
:103DF000BDE8F08D022C0AD0032C0CD0BA4212D1AF
:103E0000B8F1000F0BDA2A482C49BDE8F08D28469E
:103E10002B49BDE8F08D28467146BDE8F08D244859
:103E20002849BDE8F08D921B12153C2AC4BF204FD3
:103E3000244E10DCBAF1000FBEBF12F13C0F002778
:103E40003E4608DB6246FCF794FC21F00041FFF798
:103E500061FE07460E4694B1012C08BF86F000466D
:103E60000DD0194A194B022C3846314615D0FCF7B3
:103E7000E8FA2A46BDE8F04D114BFCF7E2BA002201
:103E8000134638463146FCF7FBFC04BF0220FFF71F
:103E900003FD38463146BDE8F08DFCF7D2FA2A46DC
:103EA000BDE8F04D064BFCF7CFBA00000000F07FF4
:103EB000182D4454FB2109C01E050000FB21F9BF49
:103EC000FB210940FB21F93F075C143326A6A13CE6
:103ED00000B585B06846FEF7C1FC04490098B0FB08
:103EE000F1F00349086005B000BD000040420F003A
:103EF0001400002030B50446FDF796FD054600BFCE
:103F0000FDF792FD401B04EB4401C1EBC411B0EB83
:103F1000C10FF5D330BD2DE9F04104460D462169AE
:103F20002068FCF725F9606061696068FCF720F99A
:103F3000064631466068FCF7A5F9E0602846A168AE
:103F4000FCF768F90746E168FCF76AF90646A168DC
:103F5000FCF70EF9A0604FF07E50E168FCF75AF9CB
:103F600006466168FCF75CF92060BDE8F0814FF41B
:103F7000A060FEF71FFCFCF70FFD03E0FCF7EAFE74
:103F8000FDF762FFFAE710B5024600200EE00023BD
:103F900052F82040E36052F82040A36052F82040DD
:103FA000A36252F820406360431CD8B28842EEDB23
:103FB00010BD2DE9F05F04460E46616A2068FCF7EB
:103FC00029F9054631462846FCF72AF98046E1687A
:103FD000FCF7CEF8E060A1682846FCF71BF98046A4
:103FE0003146FCF74FF90746A0693946FCF718F946
:103FF0008146E1686069FCF713F982462069294629
:10400000FCF70EF983465146FCF7B2F88046494664
:10401000FCF7AEF8A062A560BDE8F09F4FF08040CD
:104020000F4908610F4908614FF081400E4908614E
:1040300000200B4948610B4948610B4948610B4816
:1040400007498861074988614FF07C5006498861BB
:10405000074808490861084908610849086170472C
:10406000180100204C010020800100200AD7A33D48
:104070000000E040B4010020E80100201C02002004
:1040800041488088B0F5966F07DA3F48C088B0F5A0
:10409000966F02DAFF203D4908703C4800780428FA
:1040A00034D006DC012809D0022811D0032865D1BC
:1040B00022E01F2834D0FF2860D14EE032488088AB
:1040C00040F27E41884202DA02203049087059E00D
:1040D0002D488088B0F5E16F0DDD2D480078401C3B
:1040E0002B49087008460078052804DD0020087078
:1040F00003202649087045E02348808840F27E412D
:10410000884202DA0420214908703BE0012021495D
:1041100008701F201D49087000201F49887031E079
:1041200019488088B0F57F7F0CDA1C480188008828
:10413000401C1A4A1080B1F5FA6F0DDDFF201349BB
:10414000087009E01348007818B9FF200F4908707B
:1041500002E000201149088014E002200E49887016
:1041600000200E4908804FF496700B49088000200B
:104170000849087001200549087003E0FF20034941
:10418000087000BF00BF7047080100209E0000209B
:10419000A2000020220000203C000020A0000020FF
:1041A0002DE9F04106460F46FCF7A4FB041E0D4620
:1041B00018BF0120284320F00040C0F17F6000F1CB
:1041C000E040C00F0ED0301C18BF0120384320F053
:1041D0000040C0F17F6000F1E040C00F04BF01204B
:1041E000FFF75AFB20462946BDE8F08111223344EF
:1041F0005511223344550000DB0F4940E12E654242
:1042000035FA8E3CF6FF793D2E9E8B3AD80FC93F8A
:10421000555555555555C53F7D6FEB0312D6D4BF47
:104220005544880E55C1C93F3B8F68B52882A4BF4D
:1042300088B20175E0EF493F09F7FD0DE13D023F0E
:104240004B2D8A1C273A03C0C88A599CE52A004096
:1042500059018D1B6C06E6BF82922EB1C5B8B33FE3
:104260004FBB610567ACDD3F182D4454FB21E93F8E
:104270009BF681D20B73EF3F182D4454FB21F93F7D
:10428000E2652F227F2B7A3C075C143326A6813C03
:10429000BDCBF07A8807703C075C143326A6913CAE
:1042A000C4EB98999999C9BF711623FEC671BCBF1A
:1042B0006D9A74AFF2B0B3BF9AFDDE522DDEADBF82
:1042C0002F6C6A2C44B4A2BF0D5555555555D53F9A
:1042D000FF8300922449C23F6E204CC5CD45B73FB5
:1042E000513DD0A0660DB13FEB0D76244B7BA93F2D
:1042F00011DA22E33AAD903F000000000000000018
:104300002043000800000020F0000000783800087A
:1043100010440008F0000020600600008838000803
:1043200000A24A0400000000000000000102030493
:10433000060708090000000000000000000000005F
:104340000000000000000001020304010203040653
:104350000708090204060800000000002C01020002
:1043600000000000F00000200AD7A33C000000007D
:1043700000000000000000006F12833A0C020B3FA7
:104380000AD7A33C0000000000000000000000006D
:104390006F12833A0C020B3F0AD7A33C00000000C7
:1043A00000000000000000006F12833A0C020B3F77
:1043B00000000000AAAAEF020000000000000100B7
:1043C00000000000180100204C01002080010020A6
:1043D000E8010020B40100201C020020500200204F
:1043E0008402002000000000000000000101000025
:1043F00000000000CDCC4C3F52499D390000803F69
:1044000000000000000000000000000000000000AC
:04000005080000ED02
:00000001FF
